:1000000000500020A12500009B2500009D25000038
:100010009F2500009F2500009F2500000000000094
:100020000000000000000000000000009F2500000C
:100030009F250000000000009F2500009F25000074
:10004000C11200009F2500009F2500009F25000091
:10005000810E0000811100009F2500009F250000F7
:100060009F250000D12F00009F2500009F25000044
:100070009F2500009F2500009F2500009F25000070
:100080009F2500009F2500009F2500009F25000060
:100090009F2500009F2500009F2500009F25000050
:1000A0009F2500009F2500009F2500009F25000040
:1000B0009F2500009F2500009F2500009F25000030
:1000C0009F2500009F250000F8B5064628B10128AD
:1000D0002AD0BDE8F84001F011BC244B24491B682C
:1000E00022229D680968034602F0B0F804460680A3
:1000F0002B88204F438038601F4801F081FE6979CA
:100100001E4801F07DFEAB782371EB7863712B798B
:10011000A3716B79E371AB78042B0ED8022B20D836
:1001200017D0386801F0A8FF0120154902F00CFB38
:10013000BDE8F840002001F0C1BD052BF1D1AB793D
:1001400014222372EB7905F10801637204F10A00AD
:1001500004E0142205F1080104F1080001F0E3FCB9
:10016000DFE72B7F2372EB796372DAE7D806002092
:100170000000002048050020304B0000424B0000EA
:10018000594B000038B540F2844001F0BFFD002516
:1001900004460570458080F8645429464FF48C620B
:1001A000043001F0D8FC04F58D601922294601F0D5
:1001B000D2FC84F88154204638BD08B504F072FCA6
:1001C000FF2390FBF3F31844C0B208BD2DE9F843B8
:1001D000904604460A460F461B48414601F010FE71
:1001E00094F86434282B2CD000261C23621D03FBBA
:1001F00006F5515D09BB05F10509A14448461422E5
:10020000394601F090FC2544104B85F804801B68AA
:100210004A46EB6194F864340B48013384F8643443
:10022000297901F0EDFDB1461C2000FB09446079FD
:10023000003818BF0120BDE8F8830136282ED6D13A
:10024000F2E70020F7E700BF684B000008200940F4
:10025000002200F58D6300F2814003F8012B8342F8
:10026000FBD10120704790F8643453B11C2202FB8B
:1002700001014A792AB10022013B4A71CA6180F822
:1002800064340020704710B590F864448CB1437911
:100290007BB1002301461A4601339C424A7141F862
:1002A0001C2FF9DA80F864244079B0FA80F0400914
:1002B00010BD0120FCE72DE9F04780461E201E46B8
:1002C0000F4615469DF824A0DDF8289001F01EFD8C
:1002D000052383709DF820300446A0F80080C77085
:1002E000067145718371BAF1000F01D180F807A042
:1002F000B9F1000F05D01422494604F1080001F0BD
:1003000012FC2046BDE8F0872DE9F0419D4B92B0EC
:100310001B689C68092800F2F781DFE800F00512ED
:1003200068757C838F99A3AD974801F069FD974B61
:100330000020196801F04AFF954B1860954801F0BC
:100340005FFD934D944801F05BFD2B68934F9A1C21
:10035000197993483A6001F053FD924801F050FD3D
:100360003B689E78052E00F2CA81DFE816F0060091
:1003700029008E00CE004F018A011E2001F0C6FC2C
:100380002D6863886A8806469A4230D1864801F013
:1003900037FD6B88844833800123B3706B79F37029
:1003A00023783371AB79737101F02AFD31467F48B0
:1003B00001F000FD022101F067FBC0B101F0C0F8BF
:1003C000296862884B889A4294F8813403D18A79EB
:1003D000501E172802D9E21892F86824E01880F815
:1003E00068248979914202D1013384F881347048BC
:1003F00001F006FD664B186801F03EFE6C4801F006
:10040000FFFC002001F002FB03206A4902F09CF986
:10041000002001F0FBFA0420674902F095F9002062
:1004200001F0F4FA5D4B05201A68644902F10803F3
:10043000127902F0FBF9002001F0E8FA574B062090
:100440001B685F491A7902F0F1F9002001F0DEFA29
:10045000524B07201B685B491A7902F0E7F900202C
:1004600001F0D4FA4D4B08201B6857491A7902F065
:10047000DDF9002001F0CAFA544801F0C1FC002067
:1004800001F0C4FA12B0BDE8F0811E2001F03EFC7C
:100490002D682378EA799A4203D16A8863889A4260
:1004A00003D04B4801F0ACFCA1E71421494801F00E
:1004B000A7FC494801F0A4FC2046AA7905F10801EF
:1004C000FFF784FEE8B1454801F09AFC0126444854
:1004D00001F096FC6088434CEB79AA796979029423
:1004E0000024CDE90064FFF7E6FE04463E4801F033
:1004F00087FC21462D4801F05DFC022101F0C4FA81
:100500005CE73A4801F07CFCE1E71E2001F0FEFBCD
:1005100037482D6801F074FC2078EB79628869888F
:100520000090344801F06CFC6A8863889A4203D1D9
:10053000EA7923789A4201D02F48B3E72B7A282B07
:100540003FF655AF2D4801F05BFC2046297AFFF7B6
:100550008AFE98B12A4801F053FC0126294801F08F
:100560004FFC60881F4CEB79AA79697902940024CA
:10057000CDE90064FFF79FFE014618E7224801F02D
:100580003FFCEBE7D8060020824B00000000002073
:1005900050060020904B00009E4B000054060020A7
:1005A000AC4B0000B64B0000C44B0000C90000007B
:1005B000B64D0000C54D0000D24D0000E34D0000D7
:1005C000014E0000284E0000504E0000774E000003
:1005D000D84B0000EE4B00001A4C0000314C0000DC
:1005E0005F4C00008D060020734C0000474C00005B
:1005F000924C00009F4C0000F14C0000074D0000A1
:100600001E4D00004B4D0000344D00001E2001F037
:100610007DFB3F48D5F8008001F0F2FB00231A88EB
:1006200063889A427FF4E3AE00235A7923789A4292
:100630007FF4DDAE98F80850282D3FF6D8AE1C2385
:1006400003FB05450BAE04350FCD0FC695E807003B
:100650000BAF04AD86E807000FCF0FC596E8070083
:1006600085E8070060880DF11104002598F807302F
:1006700098F8062098F8051002940124CDE9004569
:1006800078E72B68234802333B6001F0B9FB3B68F5
:100690006288198891427FF4AAAE5A7923789A42E7
:1006A0007FF4A5AE1C4803881BB90123038001F029
:1006B000D1F93A689379013B032B3FF698AEDFE816
:1006C00003F002181A1C154BD278196891427FF476
:1006D0008EAE5B68032B08D0042B08D0022B7FF46E
:1006E00086AE032001F092F981E60420FAE70520A6
:1006F000F8E70620F6E70720F4E70820F2E731469E
:10070000074801F07DFB72E601F0F8F8BAE600BF99
:10071000694D0000784D00004C050020480600207F
:10072000834D0000F0B585B0202800F29F82DFE8FD
:1007300010F02100450052007400780089008D00FF
:10074000B000BB00C800010139014D015101630136
:1007500067016C0194019801AA01AE01BF01E30198
:10076000E701F901FD010E023E0242025C02630252
:100770008C029302784C2068FFF704FDFA21206078
:10078000002002F05DFC7549002001F00DFD002203
:100790004FF6FF70114601F0A7FC714A0028106067
:1007A00004DA704801F02CFB00F0F6FF042100226F
:1007B00001F0C0FD21686C4801F0FCFA2820664B6E
:1007C00019680B784A88019091F86414012000910F
:1007D000664902F02BF8664C02202246654902F079
:1007E0004FF82378532B0FD8422B11D9433B102BB2
:1007F0000ED8DFE803F085878D830F0D0D0D0D0DED
:100800000D810D0D0D898B00633BDAB2102AEED9F4
:10081000012000E0032001F0F9F80320564901F01F
:1008200093FF0DF10E025549042002F029F85448B7
:1008300001F0E6FA484BBDF80E201B6801205A80F3
:1008400001F0E4F805204F4901F07EFF424D4B498D
:100850000DF10E02062002F013F82A689DF80E1022
:1008600011702A681278013A182A07D946483222AC
:10087000464901F058F9072001F0C8F80024444E19
:10088000414F2B6893F88124A24243DC012001F000
:10089000BDF8314B07201A683E493B4B127801F0F6
:1008A000C5FF052001F0B2F82B4B1868FFF7D0FC0C
:1008B00038B935483222384901F035F9202001F0A5
:1008C000A5F81E2001F022FA0025234E04463368C5
:1008D0005B8885700380FFF770FCE0703368214609
:1008E0001B782E482371657101F064FA0A2101F02A
:1008F000CBF8F8B100F024FE05208CE708208AE749
:100900000C2088E7112086E7162084E71B2082E769
:100910001D2080E719191A7891F868349A4207D196
:1009200038463222314601F0FEF8072001F06EF819
:100930000134A6E71A4B1A683AB9012209211A6054
:1009400040F6B83001F0B2F8D4E7012A2AD10022EB
:100950000B211A60F4E700BFA4060020605D0000D0
:1009600000000020AC4E000009030000C64E00004D
:10097000A1060020B24F0000B54F0000D64F000086
:10098000D94F0000EF4F0000580600202250000011
:100990002F5000004450000071500000C9000000BA
:1009A00040050020B34D2B6893F8813413B9012022
:1009B00001F02CF80024B04EB04F2B6893F881342E
:1009C000A34200F32381012001F020F80C20AC4960
:1009D00001F0BAFEAB4C0D202246AB4901F050FFAE
:1009E0002378013B182B07D9A8483222A84901F0E7
:1009F0009AF8202001F00AF80E20A64901F0A4FE82
:100A000014220F20A44901F0D5FE1E2001F07EF92A
:100A1000984D04462B685B88038002238370FFF7A0
:100A2000CCFBE0702B6814221B789B492371954BFB
:100A300004F108001B78637101F075F8E278974BB8
:100A400021461A60A27896485A6001F0B3F91E2137
:100A500001F01AF800287FF44DAF1120884901F009
:100A600073FE884C12202246874901F009FF237843
:100A7000013B182B07D9854832228A4901F053F8E7
:100A8000202000F0C3FF1320874901F05DFE874C52
:100A9000142022467C4901F0F3FE2378282B07D945
:100AA0007A483222824901F03EF8202000F0AEFF61
:100AB0001E2001F02BF96F4D04462B685B880380E4
:100AC00003238370FFF779FBE0702B6821461B78C6
:100AD00023716C4B1B786371744B1B7823776F4BBE
:100AE0001860A2786E485A6001F064F91E2100F087
:100AF000CBFF00287FF4FEAE1620614901F024FEF2
:100B00006C4C17202246604901F0BAFE2378013B65
:100B1000182B07D95D483222624901F004F82020E1
:100B200000F074FF1820604901F00EFE624C19209D
:100B30002246624901F0A4FE2378282B07D95348A6
:100B400032225B4900F0EFFF202000F05FFF594D9B
:100B50005B48297801F054F91E2001F0D7F8454E82
:100B6000044633685B88038004238370FFF725FB0A
:100B7000E070336829781B78514823714E4B6171BE
:100B80001B78237701F03CF9444BE2784C481A601B
:100B9000A2785A60617901F033F92146404801F0AA
:100BA00009F91E2100F070FF00287FF4A3AE1B207E
:100BB000444901F0C9FD2F4C4348236893F864145D
:100BC00001F01EF9236893F8643453B11C263F4D9D
:100BD0003F4F23682A6893F86414914225DA002372
:100BE0002B6001203B4901F0AFFD224B1868FFF755
:100BF0004AFB012000F00AFF1F2140F6B83000F048
:100C000055FF0121344800F00BFF73E61CB9314653
:100C10000B2001F099FD2B68394623440B2093F8F3
:100C2000682401F003FE0134C7E6013206FB02F03E
:100C30001918053003442A6001930B791C20009396
:100C4000CB69394601F0F2FDC3E71F20234901F0CB
:100C50007BFD012000F0DAFE07200C4A204901F05C
:100C6000E5FD012000F0D2FE05B0F0BD00F046FE2B
:100C7000FAE700BFA40600208B5000009950000046
:100C80009E500000A2060020E753000058060020F6
:100C9000C0500000D350000030060020480600205D
:100CA000C9000000FC500000145100004406002060
:100CB0003D5100008A0600208B060020D64F000020
:100CC000525100005F51000088510000440500208F
:100CD00099510000654B00004C050020AA5100000E
:100CE000CC5100000146014800F03CBF71100000EB
:100CF00082B0ADF80600BDF806309BB20BB902B069
:100D0000704704231A46013B9BB2002AFAD1BDF872
:100D10000630013B9BB2ADF80630ECE707B5ADF805
:100D20000600BDF806309BB213B903B05DF804FBB2
:100D300040F2E730FFF7DCFFBDF80630013B9BB225
:100D4000ADF80630EDE7000038B5C307044605D519
:100D50000A4BDA78012A84BF0122DA70084D204656
:100D60002B685B6998472B6820465B6B9847012886
:100D7000F9D1024B586804435C6038BDBC060020C2
:100D8000B801001038B50D4D04462B689B69984793
:100D90002B6820465B6B98470228F9D114F0010FAD
:100DA000074B06D09978DA78914282BF9A78D2B20E
:100DB000DA70586820EA04045C6038BDB80100109D
:100DC000BC0600200A4680B501460F4801F018F81D
:100DD00072B640252F460D4E80240D493760346091
:100DE0000B780B78C8206FF307130B70FFF796FF93
:100DF000084BC8201D601C600B780B786FF307133D
:100E00000B70FFF78BFFE7E7D851000090200240FE
:100E1000BC060020A020024010B50A4B1C880A4BDB
:100E200018880A4B001B84B21C8002F02DFE0122A0
:100E3000000C074B40EA014000EB84101860054BA2
:100E40001A6010BDBA060020B80600204E0500202A
:100E50001820094080022443002310B5064C23606B
:100E600002F012FE000C054B40EA014040301860D1
:100E70000123236010BD00BFC0022443202009408D
:100E800010B53B4B186800F00112C4031A6042D53C
:100E9000384B1968002953D00A88002A4ED0013AED
:100EA0000A8000225C6894B1218811B100220139C6
:100EB00021809C685CB1218811B100220139218018
:100EC000D96821B10B8813B10022013B0B802A4B5A
:100ED0001978090947D059784A1CD2B25A70D1B949
:100EE0001A7812F0080F1A782CD0D10642BF402190
:100EF000224A11601A78920642BF80211F4A11606F
:100F00001A781A781A786FF3C3021A701A7852078F
:100F100001D5C8225A70C3070FD50021184B194AB2
:100F2000194819600388148811802344124A9BB21F
:100F30000380137843F00203137010BD0122B1E760
:100F40000122C4E7D40642BF4021104A11601A783A
:100F5000910642BF80210D4A11601A781A781A78DA
:100F600042F00802D1E7002AD5D0094B1960D2E738
:100F700004200940C8060020BC0600209020024042
:100F8000800224434E050020C4060020A020024019
:100F9000C0022443F8B500260E4B0F4F1E603D885B
:100FA0009DB1A0B10D4B1C6802F06EFD800D40EAB2
:100FB0008120C4F38F1480B2241A2C1B3546084BB1
:100FC0003E801A881444A4B21C802846F8BD01252E
:100FD0001D60FAE7800224434E05002018200940D6
:100FE000C406002070B50F4E0F4D33680446DB6811
:100FF0002846984764223368284662435E680B4956
:101000006023B0470A4A0120136843F010031360BD
:10101000536843F4407343F001035360054B1C8055
:1010200070BD00BFD001001000100040006CDC0259
:101030002C10004050050020084A0949136843F06D
:10104000100313601222074B1A60074A136823F437
:1010500040431360054B1888FFF7C4BF2C100040B5
:10106000A806002034100040301000405005002039
:1010700001302DE9F8430D46144603286ED8DFE809
:1010800000F05312475AD9F80030013E05F8013BF1
:101090001EB1D8F80030D806F5D5A6420AD0A41B58
:1010A0002046BDE8F88316462E4FDFF8CC80DFF8E7
:1010B000CC90EDE73B6815205B699847D8F8003085
:1010C000D90604D43B6815201B699847E0E7264AF7
:1010D000937943F080036FF001049371E0E715F812
:1010E000013B013EC9F800301EB1D8F800309A0625
:1010F000F5D5A642D3D13B6815205B699847D8F84F
:1011000000309B060BD43B6815201B699847EBE722
:101110001646144FDFF86080DFF86090E4E7124A6B
:10112000937943F04003D6E70E4B15201B6800244B
:101130001B699847B4E7012A09D10B492888FFF7B2
:1011400051FF0028ACD103200849FFF73BFE022ADB
:1011500004D1074B01241B880B80A1E7022005491D
:10116000F3E700BFB0010010A8060020E75100001F
:1011700050050020EB510000181000400010004006
:1011800040F2F27230B5294B294C1A602268D5061C
:1011900023D4284B9A7910061FD59A7902F07F0242
:1011A0009A71254A137843F002031370234B1A688F
:1011B0009AB11046002330F8101B01F00701994244
:1011C00009DD50F83350013315F5817FF7D102EB7B
:1011D000C3039B881380D26AEAE72368990624D464
:1011E000144B9A79520620D56FF480749A7902F0E4
:1011F000BF029A71104A137843F0020313700F4B29
:101200001A6892B11046002330F8101B01F0070154
:10121000994208DD50F833500133A542F8D102EB72
:10122000C3039B881380D26AEBE730BD44100040B3
:1012300018100040A8060020BC060020540500201D
:1012400070B572B601210C4E0C4D33880C4C1B0A44
:1012500001FA03F22A60DA01738802F181721B0A33
:101260009940DB0103F1817322432343106029601D
:10127000186062B670BD00BF82530000E0200240DB
:1012800048000042F0B572B600220126094F0A4C10
:101290000A49BB5C013203F07F0306FA03F5DB0168
:1012A00003F181730B43042A25601860F1D162B603
:1012B000F0BD00BF7D530000E02002404800004226
:1012C00070B5234C226812F4C04F1ED00020FFF7E7
:1012D000B7FF204B204D1A6892B11046002330F81A
:1012E000101B01F00701994208DD50F8336001330B
:1012F000AE42F8D102EBC3039B881380D26AEBE7BE
:10130000164A137843F002031370236813F0F05F5A
:101310001DD0104B124C186890B10146002331F8D3
:10132000102B02F007029A4208DD51F833500133C6
:10133000A542F8D100EBC3039B880380C06AEBE7AA
:10134000FFF7A0FF054A137843F00203137070BD46
:10135000E02002405405002082530000BC0600201B
:101360007D5300002DE9F047584C0420FFF7ECFCBA
:1013700023684FF4A060DB69984723684FF4A060AE
:101380005B6A984723684FF4A060DB6A98470123A3
:1013900000264F4C4F4FDFF87CC1DFF87CE1DFF8CF
:1013A0004081DFF83491236057F8045B0136C5F3C0
:1013B000C442910001F1804000F5012005EA0C0AC9
:1013C000C0F800A0280644BF41EA0E010B6003FAF2
:1013D00002F269064CBFC9F80020C8F80020112E9F
:1013E000E2D1402580263C4B3C491D601E600B78B5
:1013F0000B78C8206FF307130B70FFF78FFC384B87
:10140000C8201D601E6001260B780B786FF3071350
:101410000B70FFF783FC334B334A1D60334B344D65
:101420001E60344B14201A602B681B69984700F02B
:10143000F9FB2B6810201B6998470220FFF784FCFA
:10144000AB684FF40070DB699847AB684FF40070ED
:101450005B6A9847AB684FF40070DB6A984760227C
:10146000254B26601A80FFF7E7FD01F059F901F0DE
:1014700061F903F02BFA08281AD1204B1E60A3F55E
:101480008043043B1E6003F5005324331B68002097
:10149000FFF728FC1A4A1520136843F07003136005
:1014A000134B1B681B699847BDE8F047FFF7D4BC96
:1014B000144800F0A5FC144800F0A2FC134914489D
:1014C000C1F5984189B200F09BFCE0E7B80100103B
:1014D000282008606452000090200240BC060020D2
:1014E000A02002402420094003000500C802244334
:1014F000B001001000200940500500200C400940B8
:1015000038100040674B0000EF510000DC0600205F
:101510003B5200003F7F077F001A444203280346E6
:1015200028BF0323054ADBB20128937004D9516810
:1015300011F0010F18BF0123D3707047BC060020C3
:101540002DE9804883B0794B00AF83F30888A3F27C
:1015500004431A68764B9A4227D1764E00214FF603
:10156000FF7000F0EDF9744A744B12681A601A6843
:10157000FAB9734C72B6734D2B78C3F340029807D7
:101580007A6000F1CD80704A136801331360EA7805
:10159000012AD3B217D0022B31D0002B40F0958016
:1015A00030BF62B600BF00BFE4E70B206749FFF71A
:1015B00009FC516829B11088040702D10009884745
:1015C000CCE7D26AD2E7624A2020136843F00103D5
:1015D0001360D2F8983043F00303C2F898305D4BA3
:1015E0001B689B6998473368236843F004032360B2
:1015F00030BF236823F0040323603368D1E74FF042
:1016000001087A68544BDFF888B11A607B68DFF80C
:1016100044A1CBF800303368504BDFF87891C3F821
:1016200000806868DAF8003040F020009B69984735
:101630004B4B0321C3F80080D9F80030494823F010
:101640000303C9F80030484B1A685268904778681D
:1016500002F0FCFF3268226842F00402226030BFD0
:101660002268414B22F0040222601B6841465B68FD
:101670003C489847D9F800303C4A43F00303C9F886
:101680000030CBF8008013689906FCD5DAF80030FA
:1016900068685B6998472F4D2A4B58682B685B6BCD
:1016A00098470128F8D12D4B2D4A1860002313606C
:1016B000294B1860336803F0D9F8FFF7BDFC2C4ABA
:1016C000136843F0700313606BE72A4B01201B681B
:1016D000DB689847284A2949136823F001031360FF
:1016E000274B1A6822F480721A604FF03F320A606A
:1016F0004A6032687A681A607A68224B1A6001225E
:10170000214B1A603368194A13689B06FCD40122E6
:101710001E4B37201A600F4B1B689B69984763E785
:101720002B786FF341032B7062B617E7005000204F
:1017300079B778A72C20094054050020D80600204E
:1017400010ED00E0BC060020B00600205252000060
:101750008C210840B80100100C4009402820086086
:101760008001044300400340D801001014100940D8
:1017700038100040A001001010100940003009404E
:1017800040100940200422431810094088010443F6
:101790000002224324220840002408B5074B0848D1
:1017A0001C6000F02DFB4FF4FA70FFF7B7FA02202F
:1017B000FFF7B4FE034B1C60FFF7C2FE8002244318
:1017C000555200005405002010B5114B1149124A22
:1017D00043F8041B9342FBD1104CFFF7C3FD00F00C
:1017E000DBFE2368292100201B68984723682021FD
:1017F0001B68012098470021094800F0DBFA094BDB
:1018000000211860102000F051F962B6FFF798FE31
:10181000FC4B002079B778A7BC4F00208401001052
:1018200025070000D806002070B50D4B46681A68E1
:10183000AAB1144634F8101B002301F0070101E09F
:10184000B54206D0994208DD54F833500133A8421E
:10185000F6D102EBC3039B881380D26AE8E770BD20
:10186000540500201D4A30B5144613683BB923685F
:101870001A4A53BB03601A4B1060436030BD53E9F2
:101880000115013103EB810188420BD1156050F83D
:10189000040C53F8041C01441846013143F8041C9D
:1018A0001B68E3E750F8041C013100EB81018B4217
:1018B00003BF156050F8041C53F8045C1A4602BFBD
:1018C0004919013140F8041CEAE753F8044C50F878
:1018D000041C8C42CED21A461B68CAE76805002059
:1018E000AFDEAFDE034A13681B07FCD4024BC0B265
:1018F000186070471810004000100040072008B51D
:101900000149FFF75FFA00BFA8520000084A0346EA
:101910001146002010B552F8044B2CB101300428B8
:10192000F9D10449FFF74EFA41F8203010BD00BF4D
:10193000C8060020AE5200000180FFF78DBA0000FB
:10194000F8B504460846FFF725FB002854D12B4B79
:101950002B4D19882A8889B28A422A4903D80888D7
:1019600080B282420DD21E880888B6B280B286420A
:1019700036D2188880B2824203D9088880B2824267
:101980002ED3214A106818B9188804442C802CE002
:10199000068832071BD51F884288BFB2BA4203D8D7
:1019A0000F88BFB2BA420FD2B3F800C00F881FFA37
:1019B0008CFCBFB2BC450CD21F88BFB2BA4203D95F
:1019C0000F88BFB2BA4204D326F00F060680C06A61
:1019D000D9E71E88921B92B2944228BF1446F6E7BC
:1019E0001888121A92B29442CED91B889BB20B80EF
:1019F000BDE8F840FFF710BAF8BD00BFC4060020EC
:101A0000B8060020BA0600205405002008B5034B94
:101A100000011B681880FFF793FD00BFD806002067
:101A200010B50A4B1C68238813F0040F03F007025B
:101A300003D005200649FFF7C5F904EBC2020901EE
:101A4000013391811061238010BD00BFD8060020B2
:101A5000B352000030B50B4B1A6892B11446002304
:101A600034F8101B01F00701994208DD54F8335097
:101A700001338542F8D102EBC3039B881380D26AFD
:101A8000EBE730BD5405002010B50446064B1B683B
:101A90000BB91C4604E0A34204D12046FFF7C0FF67
:101AA000204610BDDB6AF3E75405002038B5044634
:101AB0000A4D2A68138803F0070343EA01131380D1
:101AC0000121FFF73DFF064B18882B6804445C801A
:101AD0002A68138843F00803138038BDD806002015
:101AE000BA060020034610B9054B18687047054A2E
:101AF000106800B9704742689A42FBD0C06AF8E7A4
:101B0000D806002054050020034600201A5C02B9C4
:101B100070470130FAE7013811F8013B00F8013F46
:101B2000002BF9D1704701390244904202D10023C1
:101B30000370704711F8013F002BF8D000F8013B0B
:101B4000F3E701380A44914200D1704711F8013B94
:101B500000F8013FF7E70244904200D1704700F8D7
:101B6000011BF9E708B519B103200549FFF72AF968
:101B7000044B1A6812B104200149F7E7186008BD48
:101B8000B6520000580500202DE9F84304461646D9
:101B90001D46BDF8208021B9DFF88490D9F80030C7
:101BA0001BB901201D49FFF70DF9B8F1000F28D02E
:101BB0004246294630469847002823DA411C4FF612
:101BC000FF7308D19C421CD02146A6F58170FFF717
:101BD00027FFFFF7B5FC821C16D19C42D9F8009074
:101BE0000AD02146A6F58170FFF71AFF4246294622
:101BF0004FF0FF30C847ECE7424629464FF0FF3030
:101C0000C8470020BDE8F8839C42FAD0C0F57F4069
:101C1000FE30214680B2FFF749FFDAE7BB520000F1
:101C2000580500200D4A08B5C2F1005303F598434A
:101C30009B08591EFF2903D804200949FFF7C2F861
:101C40000849101D086000200749023B1360C2E9E3
:101C50000101064A1360064A136008BDDC06002035
:101C6000BE52000068050020AFDEAFDE5C0500203C
:101C70006405002008B5C8B150F8043C002B03DB14
:101C800006200B49FFF79EF80A4903F100430A6852
:101C900040F8043C13440B60FFF7E4FD064803786A
:101CA00023B1FFF7D7FE0378013B037008BD00BFE7
:101CB000C35200005C0500206005002010B508B983
:101CC0000F4B186800220F4B1C681CB903200E49EB
:101CD000FFF778F88442E16A0ED15AB919602046BC
:101CE000FFF7A2FDFFF7C6FF054B1B68A34206D115
:101CF000FFF726FCD162F2E722460C46E5E710BD6D
:101D0000D806002054050020C8520000072898BFBC
:101D1000022038B5214B88BF03301C68204988BF9A
:101D200080084CB91F4A5378FF2B01D00133537000
:101D300000221D4B1A602FE062688A4203D0062001
:101D40001A49FFF73FF854E90152854202D223466F
:101D50001446E6E71A6054F8043C1B1A082B09D90C
:101D600044F8040C013004EB8000013B40F8043CD3
:101D7000FFF778FD00220B4B0D495A7054F8042CE4
:101D80000B689B1A0B60084942F00042086844F84F
:101D9000042C834238BF0B60204638BD6805002004
:101DA000AFDEAFDE6005002064050020CC520000ED
:101DB0005C05002038B5054630200C46FFF7A6FF2D
:101DC000002338B1074A0380C3621368C0E9015495
:101DD0000BB9106038BD1A46DB6A002BFBD1D0620C
:101DE000F8E700BF54050020044A01461378034871
:101DF000FF2B1CBF01331370FFF712BE60050020DC
:101E00000FB42DE9F7430AAB53F8044B15200193A7
:101E1000464B0A271B68DFF81C815B6998472078CE
:101E200098B90D20FFF75EFD0A20FFF75BFD404AE1
:101E300013681B07FCD43D4B15201B681B69984792
:101E400003B0BDE8F04304B07047252804F1010653
:101E500069D1019B627853F8041B6C2A08BFA61C49
:101E6000019333780CBF20251025752B4ED00AD84E
:101E7000642B1CD0732B52D02520FFF733FD307814
:101E8000FFF730FD10E0782BF6D10024DFF8A890A2
:101E900004342B1B21FA03F303F00F0319F803009A
:101EA000FFF720FDA542F3DC01363446B7E76B1E91
:101EB00021FA03F3DA0709D52D20FFF713FD102DC2
:101EC00004BF6FEA01416FEA1141494242F21074C6
:101ED000102D18BF4446B1FBF4F5ADB235B9012C55
:101EE00004D0B4FBF7F4F6E7124CF4E705F1300048
:101EF00080B2FFF7F7FC092CB4FBF7F304FB1511D4
:101F0000D2D9B1FBF3F51C46ADB2EFE7102DEBD102
:101F100042F2107489B2DEE7FFF7E4FC0131087881
:101F20000028F9D1C0E7FFF7DDFCBEE7B0010010E3
:101F30001810004000CA9A3BD152000043F2390009
:101F4000044A0549136801FB03031360034A106840
:101F500058407047040000206D4EC641B406002072
:101F600010B504460C3080B2FFF7D0FE10B100234C
:101F70000481438110BD837ADB0708D5D0E90023B3
:101F8000536002681A60837A6FF3000383727047AC
:101F900008B5FFF7F0FFBDE80840FFF76BBE000093
:101FA00038B58B7A0546DA070C4603D50A200E4968
:101FB000FEF708FF0368834201D1FFF74BFDA37AC8
:101FC0005B070AD52B68C4E900352B685C602C6080
:101FD000A37A43F00103A37238BD25606B68636088
:101FE0001C606C60F4E700BFE152000010B50446CD
:101FF000FFF7C1FF0139042932D8DFE801F02D07CE
:10200000031D1900837A43F0040383726389C3F3C9
:10201000C603072B03D8134A52F8230018B91249F4
:102020000A20FEF7CFFE2146BDE81040FFF7B8BFFB
:10203000837A43F004038372E27A5F2A4FEA5213F1
:1020400003D80A4A52F823200AB90949E8E7094A9D
:10205000214652F82300E7E7BDE81040FFF798BF9C
:1020600010BD00BF6C050020E7520000980500205D
:10207000F35200008C05002010B510F8022CA0F1DE
:102080000C04920722D530F8022CC2F3C602072AAC
:1020900003D8114951F822201AB910490A20FEF735
:1020A00091FE10F8013CC3F38203022B05D80C4AC1
:1020B00052F823300BB11B690BB90A49EEE7984778
:1020C00001462046BDE81040FFF790BF2046BDE81E
:1020D0001040FFF75DBF00BF6C050020FF520000FD
:1020E000B0050020055300000CB42DE9F3470AABFE
:1020F00053F8048B02290F4601930BD8244B53F855
:1021000021303BB1B8F1020F04D8224B53F82820FC
:1021100099461AB901202049FEF754FE08F007033A
:102120009B0243F0020343EA41351C4B00269A46CA
:1021300053F8042B12B30136082EF9D14FF0FF36B5
:10214000304602B0BDE8F04702B070472B4666F358
:10215000C9034AF826402381C4E9004459F82830CD
:102160001B6813B90A200E49D6E731463846019A52
:1021700098470028E2D14AF82640E1E70C20FFF713
:10218000C5FD04460028E1D106200649C4E700BF8A
:102190008C050020B00500200B5300006C050020CA
:1021A0001753000011530000022809D8064B53F8BA
:1021B00020200AB18A4203D143F820100020704742
:1021C0004FF0FF30704700BFB0050020082938B538
:1021D000034603D8194A52F8210018B918490A20B1
:1021E000FEF7F0FD0468A04208D14FF6FF7293425B
:1021F00021D01946FFF714FCFFF7A2F92046FFF79C
:10220000BAFEE37A04F10C05C3F38203022B05D86E
:102210000C4A52F823300BB1DB680BB90A49DEE7F0
:10222000214628469847238862881A4423899B1AA6
:102230006380284638BD0025FBE700BF6C05002001
:102240001D530000B0050020235300000829F7B5F6
:10225000054614461E4603D8264B53F821701FB975
:1022600025490A20FEF7AEFD7B7AC3F38203022BD9
:1022700005D8224A52F823300BB1DB680BB920494C
:10228000EFE7ADF804100020ADF8066001A998470B
:1022900058B14FF6FF739D4202D1002003B0F0BD4C
:1022A0002946FFF7BDFBFFF74BF93B7ADB0701D56A
:1022B0001449D6E7BDF80400BDF80630A4B21844AE
:1022C000204480B2FFF74CFE38B94FF6FF739D42B1
:1022D000E3D02846FFF788FDE5E73B8943811EB13F
:1022E000837A43F004038372BDF804304480038092
:1022F0000C30D3E76C05002029530000B005002006
:102300002F530000355300000346032B084610B539
:10231000114603D8054A52F823301BB90A20044954
:10232000FEF750FDBDE81040184700BF980500209B
:102330003B53000008B50B1E11DA00281FDB0133E8
:1023400007D102281BDC0F4B53F8200000B1C069F5
:1023500008BD022813DC0C4B53F82000F8E70828CE
:1023600003D80A4B53F820301BB90A200849FEF75E
:1023700029FD587ABDE808404009FFF7C5BF002095
:10238000E6E700BFB0050020A40500206C05002092
:1023900041530000F8B580B215460E4609B3531CF0
:1023A00003D103201249FEF70DFD082A03D8114F6F
:1023B00057F8223013B90A200F49F4E7FFF7D0FD90
:1023C000044608B90020F8BD57F8253031461B896E
:1023D00043816FF341038372FFF708FE04F10C00A1
:1023E000F1E7FFF7BDFD0028ECD00C30EBE700BFB4
:1023F000475300006C0500204D530000022810B523
:10240000044603D80C4B53F8200018B103200B49A5
:10241000FEF7D8FC43F82410094B082043F8242089
:10242000FFF774FC074A42F8240010B90620064959
:10243000EEE7C0E9000010BD9805002053530000EE
:10244000A40500208C050020595300002DE9F04F11
:10245000032805460F46144685B003D81E4B53F893
:1024600020301BB91D490A20FEF7ACFC1C4E0DF1B3
:102470000C08A6F1080A3368B146043E2BB9CA45D8
:10248000F9D1002005B0BDE8F08FD3F808B0BBF15A
:10249000000F01D11349E6E7394622462846CDF818
:1024A000008002ABD84701460028E8D00128E8D0D8
:1024B000BDF80C20BDF80E301A44A41A2046029A2A
:1024C000FFF768FF0028DCD0BDF80C102246394425
:1024D000FFF737FB0120D5E7980500205F53000088
:1024E000B805002065530000032808B503D80B4B3E
:1024F00053F820301BB90A200949FEF763FC094B49
:1025000053F820301868834205D003890B60FFF729
:1025100032FD0C3008BD0020FCE700BF980500200C
:102520006B5300008C050020032808B503D8084B26
:1025300053F820301BB90A200649FEF743FC064B2E
:1025400053F82030186883420CBF00200C3008BDBF
:1025500098050020715300008C05002010B510F87C
:10256000013CA0F10C04C3F38203022B05D8084AF6
:1025700052F823300BB15B691BB90A200549FEF7FD
:1025800021FC984701462046BDE81040FFF72EBDCC
:10259000B0050020775300007047FEE7FEE7FEE736
:1025A00008B501F015FD0C4B0C4A0D498B420DD3BB
:1025B0000C480D494FF000028842B8BF40F8042B88
:1025C000FADBFFF701F9FFF7E9FF08BD52F8040B4A
:1025D00043F8040BEAE700BF00000020805D000024
:1025E0004005002040050020DC06002008230020D4
:1025F0004FF4806270B50749074D084C2E684000C3
:10260000F605C0B248BF40F00100013B22600A60FD
:10261000F4D170BDA0200240C020024090200240B2
:1026200030B508234FF400754FF48061064C074A1B
:1026300010F0800F14BF256015604000013B216041
:10264000C0B21160F4D130BD90200240A020024001
:10265000012310B5034C2360FFF7E2FF0023236042
:1026600010BD00BF501A44422DE9F04104460D460A
:102670000127DFF844800F4E98F800304BB1052059
:102680003760FFF7CDFFFFF7B1FF00233360C307CB
:1026900001D4BDE8F0814FF6FF739C4203D10120C5
:1026A000FEF73CFBE8E721462846FFF7FFF9FEF777
:1026B00047FF00BF501A4442BC050020F8B50C4D3E
:1026C0002F7847B101214FF6FF70FFF7CDFF0022B1
:1026D000084B1A70F8BD0124074E20463460FEF7FF
:1026E00007FB20463760FEF703FB02232B70EEE763
:1026F000BC050020BD050020501A444210B5074C0F
:102700002378022B09D101214FF6FF70FFF7ACFFB0
:10271000B920FFF79DFF0023237010BDBC050020EA
:1027200008B5FFF7CBFF0122014B00201A7008BD4E
:10273000BC050020034B1A781AB102221A70FFF769
:10274000DDBF7047BC050020F8B5064618480C46AA
:10275000FFF7C8F920B13146FFF796F9FEF7F0FE12
:10276000237863B12046FFF7CFF9451CA8B2FFF7E5
:10277000CDFA074630B93046FFF736FBEEE765780D
:102780000335F3E723785BB12146FFF7C4F93946F7
:102790000748FFF70FFB40B93846FFF76BFAEAE747
:1027A0002A462146FFF7CDF9F1E70020F8BD00BF2A
:1027B00055320000F8B504460F4615467AB3194E57
:1027C000306888B91848FFF78DF948B901461648AE
:1027D000FFF7F0FA20B92046FFF706FBFEF7B0FE40
:1027E0002146FFF751F9F9E70378A3B94478033498
:1027F000AC42A8BF05F1FF34224638463168FFF7E6
:10280000A0F93068FFF736FA002333603A7802B156
:102810003B552046F8BDFFF777F90446E8E7144634
:10282000F7E700BF08060020C53200000EB477B5F8
:1028300004461248FFF756F9064620B12146FFF735
:1028400023F9FEF77DFE08AA0799019200F0F0FE39
:10285000054618B92046FFF7C7FAF2E701460748D0
:10286000FFF7A8FA18B92846FFF704FAF2E730464E
:1028700003B0BDE8704003B0704700BF55320000A0
:102880000EB433B50599044621B3134D286888B9B1
:102890001248FFF727F948B901461048FFF78AFAAE
:1028A00020B92046FFF7A0FAFEF74AFE2146FFF7BF
:1028B000EBF8F9E706AA019200F0E2FE0446286868
:1028C000FFF7D8F900232B60204602B0BDE8304066
:1028D00003B070470C46F7E708060020C532000039
:1028E000044B054A1B7803F559731384034AD381BB
:1028F000704700BFC0050020540000203C000020AD
:1029000070B50C461A2800F2A480DFE800F00E39FA
:10291000393914304F675B44353BA2A2A2A2A2A270
:102920007A77A2A28B8941A29A004C4B187800F0CA
:102930000100023028E0494A137843F00103137084
:102940000020474B1968474B0C461D68002334F89C
:10295000102B02F007029A4208DD54F8336001336D
:10296000AE42F8D101EBC3039B880B8070BD3B4A9C
:10297000137823F00103E2E701B10C883A4B1C8085
:102980000020F3E7384B1888002CEFD02080EDE7CB
:10299000364B1878CDE70C2221B120463449FFF799
:1029A000D0F8EDE73248FFF7D6F8E9E741B9FFF78D
:1029B000C5FAC0F3054102312E48FEF7BDFFBFE75F
:1029C0000988F9E700202C4B5A8B2C4B33F8021B5B
:1029D0008A42D9D001300828F8D1D5E719B1088842
:1029E000072828BF0720254B33F81020224B5A8395
:1029F0001A4A137863F07F031370A2E7204B18780C
:102A0000C2E721B10C88072C28BF0724E4B21C4B75
:102A10001C70FFF765FF114A137863F07F038EE7A0
:102A2000184BECE739B10B88032B06D83BB1DBB26E
:102A3000144A1370EDE70223FAE70323F8E70123B2
:102A4000F6E719B10B88104A138099E74FF48073A9
:102A5000F9E703200D49FEF7B5F900BFC8050020CE
:102A6000C4050020D4050020F8050020D80500206A
:102A7000EC050020BE05002054000020EA530000B1
:102A8000C00500203A0000203800002086530000D6
:102A900038B504460C4D204601F0A4F8C2B2012A14
:102AA00011D0862A03D009490820FEF78BF9013D91
:102AB00005D121460648FFF7A3F90649F4E70120AE
:102AC000FEF716F9E7E738BD915F01008E5300006D
:102AD000925300009E53000010B5064C23789B07CC
:102AE00006D50548FFF7D4FF237823F002032370AF
:102AF00010BD00BFC80500200100010438B5114C0D
:102B00002378DB061DD500250F4B19201B685B6958
:102B10009847002001F0E4F901F078F80B4B012010
:102B20001D60FEF72FF90A4B1D6001F041F84FF0D0
:102B30008042084B1A6002221A60237823F01003A7
:102B4000237038BDC8050020B001001000000460EB
:102B500004002443A020024070B504460D4642F212
:102B600011766288AA420ED0013E08D1218806481B
:102B70002B46FFF745F908200449FEF723F9012009
:102B8000FEF7B6F8EDE770BDA7530000B75300009D
:102B90004FF08042464B2DE9F0411A6002221A6044
:102BA00000F0CAFF0A20FEF7A3F800F0D1FF0028CA
:102BB000F8D001243F4B20461C60FEF7C5F840F2D8
:102BC000FF723D4B3D481A60FFF762FF4FF42372DE
:102BD0003B493C4801F006FF00223B4B3B491A7041
:102BE000022203F81B2C032203F8192C04229A77E3
:102BF0000522DA76062203F80F2C354A03F8174C23
:102C00001A63344B344A9069D2E9008ED2E902C784
:102C1000D2E90465D469C3F80080C3F804E0C3F8BE
:102C200008C0DF601E615D6198611846884202F14C
:102C3000200203F12003C461E5D1284B28480B6230
:102C4000284B4B62284B8B62284BCB62284B0B6383
:102C5000FFF71EFF012001F043F9264801F030F98B
:102C60002548FFF715FF4FF450512348FFF774FF35
:102C70002248FFF70DFF2248FFF70AFF20484FF4D4
:102C80008061FFF769FF1F4A1920137803F07F0363
:102C900043F01003137000231B4A136042F8043CF6
:102CA0001A4B043A1B68BDE8F0411B69184700BF86
:102CB00090200240040024430000046051000706F5
:102CC000B05A00001C0400219003002180C600219E
:102CD000BD05002100C00021FC5300006039536392
:102CE000010007062010101A136F236E111612161A
:102CF000546B0070DC0500205400002024000020EC
:102D00003C000020C805002014100440B001001051
:102D10002DE9F8432A4A136823F0004323F4803353
:102D200013600022274B1A601D68002DFBD102267C
:102D3000254A264F1368DFF8A08043F0004343F490
:102D400080331360224BDFF89490DB691C68237991
:102D5000032B1ED1637A217ADA1C914205F1010519
:102D60001CD198F800209A4218D313F0010C15D109
:102D700004F108019A1C885C0B448038D87001F873
:102D800002C0B9F8000004F10A01FFF75FFB00235D
:102D90002371012E06D001262468D8E73846FFF7B4
:102DA0002FF8F4E74DB1FFF7C9F8BDE8F843C0F3D9
:102DB000024102310748FEF7BFBDBDE8F88300BFFE
:102DC000181004401010044014100440BB530000BD
:102DD0007C000020BE050020D8050020D005002082
:102DE000012870B500F08B80022800F0BD8000281B
:102DF00040F0CE80684C94F90030002B05DAFFF7E4
:102E00007DFE237803F0690323702378980703F08D
:102E100001021ED50AB9FFF75FFE604D604E2B68B8
:102E2000002B4CD15F4B29461888FFF75DFB706182
:102E300000282FD05C4A2B681278023B93422B600B
:102E400003DC002B01DDDB071BD50A205749FDF70A
:102E5000B9FF002AE1D0D9060DD55548C3691A68D3
:102E60000023137112681371FFF712FE237843F0E9
:102E700002032370D1E7FFF78BFE23789A07ECD586
:102E8000CBE74FF6FF724B4B1B88934218BF038072
:102E90002B68F373296891B9474B1868FEF7C0FD9A
:102EA00023789D0703D5FFF733FFFEF749FBDC06C8
:102EB000FBD50221414B1888FEF7F8FDF5E7404DA0
:102EC0002B8863B13C4B00211868FEF7A9FD2888C8
:102ED0000021FEF7EBFD23789807E6D5E3E723789A
:102EE000D90601D4FFF754FEFFF7F6FD00236FF07B
:102EF00002027380334B34481A60FFF7C9FD264B3A
:102F000093F90030002BFFF675AF2E4B1A6892072D
:102F100002D401210846CFE721482C4C4288B2F563
:102F2000505F18D022780F2A09D9002242806FF012
:102F300002021A60FFF7ACFD0120FEF767FD23785F
:102F400001332370FEF7FAFFC0F3054102311C483C
:102F5000FEF7F2FC4EE74069FFF700FB00230F4A43
:102F6000022113602370F2E70B4B1A7893F90030BB
:102F7000002BFFF63FAFD3073FF53CAF094B188856
:102F8000FFF7D2FA00287FF435AFFFF7B7FD31E73E
:102F9000BDE87040FEF7B2BCC8050020CC0500209B
:102FA000A0000020D0050020D8050020C25300005A
:102FB0007C000020F8050020D40500203800002007
:102FC000BE0500201010044008000020FA05002073
:102FD00030B5154A1368002BBFBF14490B7863F056
:102FE0007F030B70002111601368002BFBD1104A86
:102FF000104C11681360104A24681168084630F8B4
:10300000102B02F007029A4208DD50F833500133CA
:10301000A542F8D101EBC3039B880B80074A1378C4
:1030200043F00203137030BD10100440C8050020A7
:1030300014100440D4050020C4050020BC06002064
:103040002DE9F84F494C064622781AB10920484923
:10305000FDF7B8FE29B18A1FF42A03D90320454998
:10306000F6E7FA2100274FF00208BA464FF00409AC
:10307000217020789B460D30FEF748FE034620B9AC
:1030800006203B49E4E7B846F3E780F804A0002FA8
:103090003ED0CBF8000001272278B84502F10202A9
:1030A00083F80590DA80EED11D600820FEF72EFE31
:1030B000314BD8610028E3D005600025DA692F493B
:1030C00055602F4A30461A62DA8942F40C5242F0B7
:1030D0000602DA8123784FF41062023B2370294BF9
:1030E0001E80FFF78BF9284B0722022118602B4620
:1030F0002648FEF785FE2648FEF708FC29462548A7
:10310000FEF758FE244B186020B9042018499FE7A9
:103110000546C0E74BF62B43204C21496383214BE6
:103120001A78013A01EB8203588831F8223022697B
:1031300003F00F0322F0FF5222F4FF1222F4F852A0
:1031400022F00F0243EA002313432361FFF7C8FB79
:10315000154B20461D6000F027FE2046134900F065
:103160007BFD134B1D60BDE8F88F00BFD805002024
:10317000CA530000CF5300007C000020012900004A
:10318000EC050020D0050020D4050020D753000016
:10319000BE050020E12D0000C405002054000020E1
:1031A0003C5D00003A000020D0210840DC050020F2
:1031B0001810044010B5074A034612684FF0FF305C
:1031C00032B152F823408C4204BF42F82300002061
:1031D00010BD00BFFC0500200749009A096809B925
:1031E0000020704751F8201019600131F8D00023F9
:1031F0000220538013807047FC0500200020488087
:1032000008807047042070470120704770B50F4C4C
:10321000054623680E464BB90C20FEF777FD20606B
:1032200078B14FF0FF33C0E900338360236853F86F
:103230002520013206BF43F8256000204FF0FF3003
:1032400070BD06200249FDF7BDFD00BFFC05002052
:10325000485D0000F7B5184B1B689D6830B10A281F
:103260000DD003B0BDE8F040FEF748BB134B144C43
:103270001D602B78E3B12846FEF746FC20600F4E18
:103280000F4F3B8801220093002133680A20FEF78C
:103290007BFC33683C680344241A33603C60002C98
:1032A000EFD12846FEF7E6FC2046FEF707FDE8E7EB
:1032B0006B7803332360E2E7D80600200406002081
:1032C00000060020F7B5424D2A68946803287AD892
:1032D000DFE800F00218485D3E4B1B6813B1002088
:1032E000FEF7ECFC4020FEF711FD3B4B0446186056
:1032F00018B9FEF779FDFEF723F93F222B68986095
:10330000364B1A6001200022334D00902B68114685
:10331000FEF73AFC2B68A3420DD1237823B9631C36
:1033200002202B60FEF772FB2B681B781F2B02D844
:103330000120FEF76BFB2B681A780A2A01D00D2AB0
:1033400005D100201870234B1C60FEF7B7FC234901
:103350000B6823B12A68013B01322A600B6001200F
:10336000FEF754FB012300221B4D009311462B68EE
:103370000220FEF709FC194803689A1E2B6813F80F
:10338000011B01319142D4BF016002602B60002219
:10339000124F114D3B88114600932B680320FEF716
:1033A000F3FB3B680646181A386018B9094B1C60D5
:1033B000FEF784FC286830442860032003B0BDE891
:1033C000F040FEF723BB03B0BDE8F040FEF796BA2D
:1033D000D806002008060020100600200C06002059
:1033E000DCF8002032B1BCF80630BCF80410994279
:1033F00088BFD054BCF806300133ACF806307047B3
:103400002DE9FF471C460CAB039300230A26864F89
:103410000190ADF80810ADF80A3092F80090B9F1BB
:103420005C0F18D192F80190951C0DF1040CB9F1C4
:10343000000F0BD15C20FFF7D3FF48460DF1040CC1
:10344000FFF7CEFFB9F1000F03D127E04846FFF7A1
:10345000C7FF2A46E1E7B9F1250F40F0E28092F874
:103460000180951CB8F1730F00F0CD801BD8B8F126
:10347000640F33D0B8F16C0F67D0B8F1630F00F070
:10348000BC8025200DF1040CFFF7AAFF40460DF18A
:10349000040CFFF7A5FFB8F1000FDAD1BDF80A0060
:1034A00004B0BDE8F087B8F1750F17D0B8F1780F08
:1034B000E7D14FF00C0854F8043B1FFA83F949FA9E
:1034C00008F303F00F03F85C0DF1040CFFF788FF1D
:1034D000B8F1000FBDD0A8F10408F0E754F8043BA0
:1034E000B8F1640F1FFA83F90AD11B0408D52D2007
:1034F0000DF1040CFFF774FFC9F100091FFA89F9F7
:10350000052342F21078B9FBF8F010F0FF0003D168
:10351000013B17D14FF001081FFA80FA0DF1040C9E
:103520003030FFF75DFFB8FBF6F308FB1A99B8F1EE
:10353000090F1FFA89F99BB28BD9B9FBF3F09846B2
:10354000C0B2E9E7B8FBF6F8DDE79378642B01D069
:10355000752B32D1642B54F804AB02F1030509D169
:10356000BAF1000F06DA2D200DF1040CFFF738FF39
:10357000CAF1000A0A23DFF8B480BAFBF8F919F09F
:10358000FF0903D1013B15D14FF001080DF1040CE7
:1035900009F13000FFF724FFB8F1090FB8FBF6F38B
:1035A00008FB19AA7FF655AFBAFBF3F998465FFA04
:1035B00089F9EBE7B8FBF6F8DFE7782B14D14FF089
:1035C0001C0854F8049BD51C29FA08F303F00F03D8
:1035D000F85C0DF1040CFFF703FFB8F1000F3FF4A6
:1035E00038AFA8F10408EFE748460DF1040CFFF7E7
:1035F000F7FE40460DF1040C29E754F8040B0DF1D9
:10360000040C80B223E754F8043B03F1FF3818F8A8
:10361000010F00283FF41DAF0DF1040CFFF7E0FE91
:10362000F5E7551C09E700BFD152000000CA9A3BDC
:103630002DE9F0410E461746044640B113460A46AE
:103640004FF6FF71FFF7DCFE2046BDE8F08108462B
:10365000FEF75AFA00F11105ADB22846FEF756FB07
:1036600004460028F0D03B4632462946FFF7C8FE04
:1036700085428046E8D22046FEF7FCFA4546ECE754
:1036800003462DE9F043002800F0B581002900F041
:10369000B48100240A272546DFF870C30E4611F8CE
:1036A000010B70B12528F9D17078B11C6C2800F09D
:1036B000E18009D8632800F08481642843D0002881
:1036C000ECD12046BDE8F083752874D0782800F04E
:1036D00098807328E2D118781E46A0F1090E5FFA8F
:1036E0008EFEBEF1170F984603F1010340F273817D
:1036F0000028E6D02C2852F804EB04F101040ED087
:10370000464618F8013BA3F10900012807D90D2B03
:1037100005D02C2B03D013F0DF0F40F0638196F817
:1037200000803346A8F10900C0B2172806F101064F
:1037300040F25B81B8F12C0F08BF33468EF8005081
:10374000ACE7002EBDD09E4613F8016BA6F1300009
:10375000092823D92D2E01D02B2EF2D118789E4680
:1037600030380928EFD8A6F12D09D9F1000848EB27
:10377000090852F8046B013435809EF80000734646
:10378000A0F13009B9F1090F0EF1010E09D9B8F114
:10379000000F83D13088404230807FE74FF000082F
:1037A000E7E7338803EB8303C0EB4300303030801E
:1037B000E3E7002885D018781E46A0F1300EBEF150
:1037C000090F03F10103F4D852F804EB0134AEF809
:1037D000005030783346A0F13008B8F1090F06F1F7
:1037E00001063FF65BAFBEF8003003EB830300EB4E
:1037F00043003038AEF80000EBE7BEF1000F3FF4B5
:1038000060AF93F800E01E46AEF13000092803F1E6
:10381000010304D92EF0200041380528EDD852F8D4
:1038200004EB0134AEF8005006F1050896F800905C
:103830003346A9F13000C0B2092806F1010640F272
:10384000DE8029F02000413805283FF627AF4645A5
:103850003FF424AFA9F16103052B94BFA9F15700F0
:10386000A9F13700C0B2BEF8003040EA0310AEF84C
:103870000000DBE7B078F11C75287DD031D8002836
:103880003FF41FAF64287FF409AF984613F8016B2B
:10389000A6F13000092862D92D2E01D02B2E5BD144
:1038A0001878984630380928EFD82D3E704270417C
:1038B00052F804EB0134CEF8005098F8006043460B
:1038C000303E5FFA86F9B9F1090F08F1010848D9CD
:1038D00000287FF4E3AEDEF800004042CEF800009E
:1038E000DCE678287FF4DAAE93F800E01E46AEF10D
:1038F0003000092803F1010304D92EF020004138DB
:1039000005285AD852F804EB0134CEF8005006F1DD
:10391000090896F800903346A9F13000C0B2092892
:1039200006F101066FD929F02000413805283FF63D
:10393000B5AE46453FF4B2AEA9F16103052B94BF85
:10394000A9F15700A9F13700C0B2DEF8003040EA13
:103950000310CEF80000DCE7002E96D1B1E600207F
:10396000A6E7DEF80030B6B27B439E1BCEF80060BF
:10397000A3E700283FF4A5AE18781E46A0F1300E4C
:10398000BEF1090F03F10103F3D852F804EB01343F
:10399000CEF800503078334630385FFA80F8B8F10E
:1039A000090F06F101063FF679AEDEF8003080B26D
:1039B00007FB0300CEF80000ECE7BEF1000F93D147
:1039C0007FE613F8010B00283FF47BAE52F8046B3E
:1039D0000134307062E62CFA0EFE1EF0010F7FF407
:1039E0007AAE87E60EF8013B8AE62CFA00F0C007B3
:1039F0003FF595AEA2E6044663E60C4661E6464511
:103A00007FF431AF4AE646459FD147E61300800078
:103A100070B5064600F044F80546064C2368002BB6
:103A2000FBD0B047012323601DB9BDE8704000F012
:103A30003BB870BD00800C40084B1868084B1978E3
:103A4000084B1A6840F31003A2F5407248B2504385
:103A5000A3EB201080300012704700BF30500940A7
:103A60000C13005028500940054A0649136808689D
:103A700012689342F8D11B0443EA1040704700BF1C
:103A8000082009400C200940034B04491A680868C3
:103A900019689142F8D17047082009400C2009406C
:103AA000EFF3108072B67047EFF3108062B6704784
:103AB00073B50C46C107054609D5124BA2B21B6867
:103AC000002100925E68104801220B46B047AA0709
:103AD00009D50C4BA2B21B6800925E680A4800210F
:103AE00002220123B0476B0709D5064BA4B21B681D
:103AF00000945C68044800210C220223A04702B015
:103B000070BD00BFA401001000A00C4010B5084B10
:103B100004281B684FF03401DC6807BF4FF0C04237
:103B20001D234FF080521C230248A04710BD00BF48
:103B3000A401001000A00C4008B503200121FFF7EC
:103B4000B7FFFFF791FF014B986008BD14060020F6
:103B500010B50120FFF7DAFF01281CD00F4B1048E9
:103B60001B683421DC6801220023A047A0B10D4B63
:103B7000986BFFF74DFFFFF777FF0B4A9368D06014
:103B8000C01A0A4B58431368000CA3EB93038342FB
:103B900094BF10601360012010BD00BFA40100108D
:103BA00000A00C40480000101406002040420F0006
:103BB00010B503200021FFF77BFF0120FFF7A6FFD0
:103BC00018B1064B986BFFF723FFFFF74DFF044C2E
:103BD0006060FFF731FF206110BD00BF480000109A
:103BE00014060020074A11680029FBD1064B196012
:103BF00010601A68002AFCD0034B00221A6053F8A8
:103C0000180C7047001004401C1004400E4A0F4965
:103C10001368502023F4007323F0020343F400736D
:103C200013600B4B03221A6041F23003094A0B6008
:103C30000123136008604FF4CA60136008601360CA
:103C400042F80C3C704700BF00000460144104407F
:103C5000084104400C41044040F6020203889342AC
:103C600006D043F60702934204D190F8243002E0D4
:103C7000C37B00E00023364A0A2B12680A6031D069
:103C800010DC052B21D0062B53D1324B1B684B6027
:103C9000314B1B688B60314B1B6823F0784343F03A
:103CA000405352E00F2B2AD01E2B35D00C2B40D185
:103CB0002B4B1B684B602B4B1B688B602A4B1B6884
:103CC00023F0784343F0C0433FE0284B1B684B6030
:103CD000274B1B688B60274B1B6823F0784343F00E
:103CE000205332E0244B1B684B60244B1B688B60D5
:103CF000234B1B6823F0784343F0A04325E0214B7E
:103D00001B684B60204B1B688B60204B1B6823F0AB
:103D1000784343F0F04318E01D4B1B684B601D4B8C
:103D20001B688B601C4B1B6823F0784343F0704387
:103D30000BE01A4B1B684B60194B1B688B60194BCF
:103D40001B6823F0784343F08053CB60704700BF7B
:103D50004C130050C8100050E0100050F8100050F4
:103D6000D0100050E810005000110050C410005056
:103D7000DC100050F4100050CC100050E410005043
:103D8000FC100050D4100050EC10005004110050F2
:103D9000D8100050F010005008110050541300507B
:103DA000581300508013005043F6060270B5038884
:103DB00093420AD043F60702934209D040F602022A
:103DC00093426BD1C17B436905E0C369022102E0E4
:103DD00090F82410C369002B60D003F1140444F25E
:103DE00038051A68184696B2AE4203F1040303D1AF
:103DF000C2F303441CB970BDA342F0D170BD0A29BF
:103E00001DD006DC052913D0062916D002291FD1A2
:103E100007E00F2915D01E2915D00C2918D1204BE9
:103E200012E0204B1B68C3F383430F2B2AD123E0FE
:103E30001D4B1B68C3F303232CE01C4B04E01C4BFD
:103E400002E01C4B00E01C4B1B68C3F3834321E0E2
:103E5000144B1B68C3F383430F2B13D10539192966
:103E60000AD8012303FA01F1144B0B4023B122F4C9
:103E7000702242F4E02203E022F4702242F4802215
:103E8000026070BD9C4209D222F4702242EA0343D0
:103E9000036070BD0F2BF5D10539E2E770BD00BF9F
:103EA000001100508013005020130050F8100050F3
:103EB000FC100050041100500811005021040002B1
:103EC000034630B5054C00F11005224618685968C4
:103ED000083303C2AB421446F7D130BD18000021AD
:103EE000044B28B1044A0021117020221A70704737
:103EF00018707047026208400062084038B50546F5
:103F0000264B01221A60264B1B68002BFBD0254B49
:103F1000C0221A60244B1B689B075FBF234B244AB7
:103F20001B68C3F303435CBF43F0F0031370214BE2
:103F300000221A60204B1C68204600F0D9F8284661
:103F4000214600F00DFA40F21D221C4B1B689BB26B
:103F5000934214D81A4A13681268C3F30363C2F376
:103F6000034203B1013B911F012986BF023202F0D7
:103F70000F02072243EA0213124ADBB213702046F3
:103F800000F0BCFA104B02201B68DB689847054B19
:103F900040221A600D4B01221A6038BD10100940F2
:103FA0009402224300600C40B03F0050AC3F0050F0
:103FB0005662084040100940B43F005014130050AE
:103FC000BC12005002600840A0010010940460423E
:103FD00010B51F4B1C68631C08BF002400F0DEFCFA
:103FE0001C4B00221A601C4A012313601B4A1360F9
:103FF00000F03EFA1A4B1B6823B11A4B20461B688F
:10400000FFF77CFF184B00221A60184A136823F050
:104010007F6323F4702343F09C7343F48033136075
:1040200002F5BB2202F2BC721368C3F30133012B09
:1040300001BF136823F0407323F4403343F400318D
:1040400004BF116013600A4B1B68002BFBD110BD2D
:104050001C130050840460425C600C40082204433E
:1040600080012843000120438C2108404820034060
:104070000C00684230B5194B1A68194BC2F3046240
:104080001B78152A03F01F0388BF203A152B88BF21
:10409000203B934220D01349002008600846D11AE3
:1040A000022905DC6FF00104A142B8BF214600E0FF
:1040B00002210B440C490D4D0C6803F01F0444F41D
:1040C000F8542C8093424FF001040C60E7D10B6848
:1040D0000C600B6804600B6830BD00BF8813005093
:1040E00006620840980020432C2009406C6208407A
:1040F00000F04073B3F1807F10B504460FD14FF646
:10410000D8011E4A80231370A2F8411002F8103C17
:10411000FFF7B0FF1A4B1B68C3F3042303E0194BEE
:104120001B68C3F30463152B88BF203B03EB247388
:104130000133152B05DC6FF009029342B8BF13461B
:1041400000E01523104A03F01F0343F4F8531380D3
:104150000E4B1B6813F002030ABF0D4A44F0406483
:104160001360C4F3C0630B4A83F001031360C4F30C
:104170008064094B84F001041C6010BD2562084076
:1041800088130050B81200506E62084000000940C9
:1041900094042A430000204308002043154B810368
:1041A0001B68C3F38362C3F38F231FD440F307203C
:1041B000002819DA5B0805D1520806BF01231A4608
:1041C0004FF6FF730130F3E75B0043F00103B3F5F3
:1041D000803F08D3520042F001020F2A86BF4FF6FB
:1041E000FF730F22012301380028EDD143EA02407A
:1041F000704700BF50130050044A13681068C3F39F
:10420000870300F0030043EA00207047501300507A
:10421000024B186800F0FC30704700BF7413005068
:10422000034B186820F07F4020F44030704700BFF7
:104230007013005070B5154B15491C680968C4F31C
:10424000035211F00105C4F3034313D11149096866
:1042500041F30326B21803D40F2AA8BF0F2200E0AF
:104260002A4641F30331CB1803D40F2BA8BF0F23E9
:1042700000E00023A1B2212841EA025242EA0343AE
:1042800084BF04F080442343184670BD7813005067
:10429000B03F0050AC3F00501F2883BF024B18684E
:1042A000C0F301500020704798130050212883BFAD
:1042B000024B1868C0F30070012070478C13005047
:1042C000212883BF024B1868C0F34070012070475B
:1042D0008C1300501F2881BF074B1B68C3F302607B
:1042E000800081BFC3F3C16240EA0220C3F381535F
:1042F000184398BF0020704798130050024B18686D
:10430000C0F3C140704700BF8C1300501F2881BF0D
:10431000074B1B68C3F30510C3F3892281BF000458
:104320001B0340EA82509BB28CBF18430148704780
:104330009813005000803F40212883BF024B18682B
:10434000C0F3C060002070478C130050212883BF49
:10435000024B1868C0F34550002070478C13005082
:1043600073B505460846FFF719FF394C0246182178
:10437000204600F033FBFFF73FFF364B80B21B684F
:1043800000905E6820462C2140F2FF320023B047A7
:10439000314B20461A681C21C2F30D0200F01EFBAF
:1043A000FFF736FF14210246204600F017FBFFF707
:1043B00037FF10210246204600F010FB2846FFF789
:1043C00039FF0C210246204600F008FB2846FFF783
:1043D0006DFF4000214E40F02000C0B230702846F2
:1043E000FFF76EFF40F01000C0B230702846FFF7B4
:1043F00071FF28210246204600F0F0FA2846FFF718
:104400004BFF4000164B40F06000C0B218702846C9
:10441000FFF792FFC000134B60F07F00C0B218702E
:104420002846FFF793FF6FEA00606FEA90500E4B4B
:1044300080B218802846FFF769FF0821024620460F
:1044400000F0CCFA094B4FF480021A6002B070BD44
:1044500000A00C40A40100107C13005049A10C40A6
:104460004CA10C4041A10C40DCA10C4040A00C40F0
:1044700030B5144B1B68002BFBD1134A134913684A
:10448000096823F0005323F0070311F0040F1446CA
:1044900043F0005303D043F00503136030BD0C49D3
:1044A00043F004000D68AD0709D043F00703136023
:1044B0000B6803F00303032BFAD1206030BD1060BA
:1044C00030BD00BF0C00684204400340B03F0050C4
:1044D00000400340074B82B2C0F307401A605860A7
:1044E000012208331A60044A1268002AFBD0002215
:1044F0001A6070473C600C4084088C43C0F38143D1
:10450000012B10B5044602D0022B2FD02AE0424BDB
:104510001B689A0326D4414A4FF4804111604049F8
:10452000C3F303300A6822F08F020243C3F3004052
:1045300042EAC0120A6051F8012CC3F3032022F0B2
:104540000F02024351F8010C41F8012C51F8022CE2
:1045500003F0E70322F0E702134351F8022C41F87D
:10456000023C03E02D4B4FF000421A602D4B1B68BC
:104570001B075EBF2C4B40221A602C4B4FF400727D
:104580001A60FFF7BBFE2A4B40F03000C0B2187033
:10459000C4F3815001280BD002D3022826D028E092
:1045A00004200121FFF784FA2248FFF793FF24E05B
:1045B000FFF7ACFA044604202146FFF779FA0420FD
:1045C000FFF7A4FAA042FAD11B4B1C6824F07F40ED
:1045D000FFF780FF194B4FF060221B68200E1B680D
:1045E000072198470D4B4FF480621A600420032185
:1045F00001E004200221FFF75BFA114B114A1B680E
:1046000003F03F03137047F618020F4B1A80A3F50F
:104610006433443B1B6810BD8C13005040A00C4019
:104620000C600840B03F005068A00C4080A00C40D7
:1046300008A10C40BD378600A83F0050B40100100F
:104640006C1300500BB00C4070B00C402DE9F74FCC
:10465000774B07461B68774E13F0020F04D00823F0
:10466000B371754A754BDFE0FFF7E6F9744B1D68CF
:104670002A17AC0202F1010108D4C0F13E03DB109D
:10468000082BA8BF08239942B8BF194605F040730C
:10469000B3F1807F0AD16B4B1A681B68C2F3042206
:1046A000152A88BF203AC3F304630AE0664B1A68F0
:1046B000664BC2F304621B68152A88BF203AC3F315
:1046C0000443152B0A4488BF203B152A05DC6FF0F4
:1046D00009018A42B8BF0A4600E015225C4C02F08C
:1046E0001F0141F4F85121805A49096811F003046F
:1046F00018BF0124490748BF44F002040FB144F039
:10470000040496F90710411A042903DC4949897900
:104710008C426FD0B0F10F01019104F00101DFF87C
:1047200044A104F0040904F002080F462AD40199B8
:1047300001EB01114FEA212EBEF1070F019101D8C3
:1047400004D101E04FF0070E062100E07146DFF8CA
:1047500018B101315AF821C05BF82110C1EB0C0CE3
:104760005FFA8CF1B9F1000F02D0CCF3072B59445A
:10477000B8F1000F02D0CCF3074B59442FB101EB35
:104780001C6102E04FF0000E71465AF82EA05FFA4D
:104790008AFCB9F1000F02D0CAF30729CC44B8F162
:1047A000000F02D0CAF30748C4440FB10CEB1A6CD7
:1047B0009B1A012BB8BF0123019F34225343A7EB5F
:1047C0000E277943EDB26B4380310CEB1121B3FB23
:1047D000F1F14FF6FF7C614528BF61467F28B1802B
:1047E00005DC6FF07F039842B8BF184600E07F20D9
:1047F000F071B471184B00211B683360B3881E2B15
:104800009EBF0C4A1F239380B3F5007F02D35B0841
:104810000131F9E7114A0F3B0A431B0942EAC3037E
:10482000064A13600E4B00221A6003B0BDE8F08FF9
:104830000000094028060020FDFDA40030100940BA
:10484000B43F005088130050B81200503C11005083
:104850006E620840242208400820094000E7A48036
:10486000341009409C1300509813005010B5144B9D
:104870001C68A4B214B3FFF7DFF8124B93F90720BA
:10488000904205DA6FF07F029042B8BF1046D871AF
:104890009A880C49944210D30B4B08681B68A41AE1
:1048A00002331B1A1F2B28BF1F235B08DC40144454
:1048B0004FF6FF72944228BF14468C8010BD00BF93
:1048C000341009402806002008200940044B1A68CB
:1048D00012045ABF1868C0F342000820704700BF96
:1048E000040009404BF69A12104B1868C0F30F30C1
:1048F000904206D11B681B0F0B2B0CBF042000201D
:1049000011E04BF6BE1398420AD04BF64133984261
:1049100008D04BF62033984214BFFF20022002E05B
:10492000012000E0032040B2704700BF1813005080
:1049300038B5194B1D68A3F51E7318682D0FC4B246
:10494000802C28BF0024FFF7CDFF042821D8DFE802
:1049500000F003131B1B1C00013D072D19D8DFE8D5
:1049600005F01118041818180608142012E0152074
:1049700010E004F116000AE025B1022D09D104F17E
:10498000140004E00A2005E01DB904F10A00C0B2D9
:1049900000E0FF2040B238BD1813005008B5FFF703
:1049A000A1FF012803D1FFF7C3FF132800DCFEE7B6
:1049B00008BD000038B504460D46FFF771F8064BF8
:1049C0001A68002AFBD0012225601A6018B9BDE8D8
:1049D0003840FFF769B838BD00800C4008441146E4
:1049E000FFF7E8BFF0B5C64600B50F2A45D90B0062
:1049F000032603431E400C000300002E42D1150085
:104A0000103D2D09AC462D01A846804400E03B0036
:104A100067685F60E768DF601F0025681D60A56844
:104A200010379D6010344345F1D165460F230C24A7
:104A300001352D01491913404519144225D08C59CF
:104A4000AC5104369C1B032CF9D80324043B9B086F
:104A500001339B002240ED18C918561E002A07D0CA
:104A6000002300E02300CA5C5C1CEA549E42F9D19A
:104A700004BC9046F0BC02BC08470500561E002A44
:104A8000EED1F5E7561E0500EAE71A00F6E7C04644
:104A90000022034B1B68A83318605A607047C04659
:104AA000100100200A4B10B51C68A834206861680A
:104AB000084A094B00F012F80122002380185941DE
:104AC000206061604800400810BC02BC0847C04636
:104AD000100100202D7F954C2DF45158F0B50F009A
:104AE0000100C646844615040004140C000C090C91
:104AF0002D0C2E0046434D43604361434019340C56
:104B0000241800B5A54203D98020400280464144C4
:104B1000250C6D18614659437A4330044919240421
:104B2000000C2018891804BC9046F0BC04BC104747
:104B300053454E44494E472050524F4345445552E9
:104B400045004920616D207468206D65737361674D
:104B50006520474944202564004D6573736167658E
:104B60002073656E740D0A006F776E65722069643C
:104B70002025640A206E65775F656E747279202542
:104B800073000D0A726563656976696E672030008F
:104B90000D0A726563656976696E672031000D0ADA
:104BA000726563656976696E672032000D0A54503C
:104BB000453A202564000D0A726563656976696E61
:104BC000672033000D0A53656E64696E6720746F49
:104BD0002073656E646572000D0A437265617465C9
:104BE000207265632077652062726F6B65000D0A25
:104BF0004372656174652072656320696E626574D5
:104C00007765656E2069663A2053697A65206F661C
:104C100020726563203D202564000D0A43726561A2
:104C2000746520726563207365636F6E64206966C6
:104C3000000D0A43726561746520726563207468B3
:104C4000697264206966000D0A43726561746520AB
:104C500072656320746869726420656C7365000D09
:104C60000A43726561746520726563206F757420F4
:104C70006966000D0A437265617465207265632080
:104C800073656E64696E6720746F2073656E64650A
:104C900072000D0A44656C6574652072656300647A
:104CA000656C657465207265636F72642067696402
:104CB0002025640A6E6F64655F6462206769642002
:104CC00025640A2064656C657465207265636F7283
:104CD0006420726563656976657220696420256465
:104CE0000A2C206E6F64652064622069642025644C
:104CF000000D0A44656C6574652072656320666901
:104D0000727374206966000D0A44656C65746520D1
:104D1000726563207365636F6E64206966000D0AB7
:104D200044656C657465207265632074686972649B
:104D3000206966000D0A44656C65746520726563C0
:104D400020666F75727468206966000D0A44656C90
:104D500065746520617373656D626C65206C652098
:104D6000726573706F6E7365000D0A726574726997
:104D700065766520726563000D0A526573706F6E0B
:104D80007365004552524F523A20726563656976E9
:104D900065642074797065205B25645D20697320EB
:104DA0006E6F74206C6567616C207061636B6574F5
:104DB0002074797065000D0A496E20646F6E655F1E
:104DC00063617365000D0A44617461205361766507
:104DD00064000D0A5265636F72642044656C6574EB
:104DE0006564000D0A5265636F72642052656365E5
:104DF000697665642066726F6D2025643A2025739C
:104E0000000D0A546865207265636F7264206361E7
:104E10006E2774206265207361766564206F6E2052
:104E20006E6F6465202564000D0A54686520726504
:104E3000636F726420646F6573206E6F7420657891
:104E400069737473206F6E206E6F64652025640033
:104E50000D0A546865207265636F726420646F6523
:104E600073206E6F74206578697374206F6E206E86
:104E70006F6465202564004552524F523A20736F8B
:104E80006D6574696E672077656E742077726F6EDA
:104E900067207768656E20726563656976696E67FD
:104EA00020746865207061636B65740043616E6E89
:104EB0006F74206F70656E2074637620696E746500
:104EC0007266616365000D0A47726F757020256414
:104ED0002044657669636520232564202825642F96
:104EE0002564207265636F726473290D0A2847294F
:104EF000726F75702049440D0A284E296577206429
:104F000065766963652049440D0A284629696E64FF
:104F1000206E65696768626F72730D0A2843297293
:104F200065617465207265636F7264206F6E206EB8
:104F300065696768626F720D0A284429656C65743B
:104F400065207265636F7264206F6E206E6569679D
:104F500068626F720D0A28522965747269657665F8
:104F6000207265636F72642066726F6D206E656972
:104F70006768626F720D0A285329686F77206C6F1B
:104F800063616C207265636F7264730D0A522865E9
:104F900029736574206C6F63616C2073746F726128
:104FA00067650D0A0D0A53656C656374696F6E3A27
:104FB0002000256300506C656173652070726F7608
:104FC0006964652061206E65772067726F75702057
:104FD0004944233A200025750073657474696E672F
:104FE000206E6F64652067726F7570204944000DF4
:104FF0000A506C656173652070726F766964652014
:1050000061206E6577206E6F6465204944232028F7
:10501000312D323520696E636C7573697665293A76
:1050200020004F7574206F662052616E67650049DD
:105030004420697320616C726561647920696E2017
:10504000757365000D0A4944233A2025752C2069A3
:105050007320616E20696E76616C69642063686F8D
:105060006963652E20526561736F6E3A2025732E39
:10507000004572726F7220436C656172696E6720C1
:105080004E6F6465204172726179000D0A4E656948
:105090006768626F72733A200025752C2000506C8F
:1050A000656173652070726F766964652061206E3A
:1050B0006F64652049442028302D3235293A20007C
:1050C0004572726F723A20696D70726F70657220EE
:1050D000494400506C656173652070726F76696435
:1050E000652061207265636F726420286C656E674D
:1050F0007468203C3D203230293A20004572726F9E
:10510000723A20696D70726F706572206E6F64659F
:1051100020494400506C656173652070726F766938
:10512000646520746865207265636F726420696EBF
:105130006465782028302D3430293A200045727279
:105140006F723A20696E76616C696420696E64657D
:1051500078000D0A7265742049443A202564000DD8
:105160000A496E6465780954696D65205374616DF0
:105170007009094F776E6572204944095265636F63
:1051800072642044617461000D0A6974656D206366
:105190006F756E743A202564000D0A256409257523
:1051A000090909257509092573000D0A4661696C0D
:1051B000656420746F20726561636820746865207F
:1051C00064657374696E6174696F6E000D0A45726F
:1051D000726F723A202573005359534552523A2048
:1051E00025782C2025730075617200756169005067
:1051F00069634F532076352E342F50473138303283
:105200003232412D4343313335305F4C41554E43AB
:1052100048584C2C20284329204F6C736F6E6574BE
:1052200020436F6D6D756E69636174696F6E732C69
:1052300020323030322D32303138004C6566746F98
:105240007665722052414D3A20256420627974655A
:1052500073007374005069634F532068616C746508
:10526000640000008060300080603800106018002A
:105270000F40102000406930004071300860B800D5
:105280000040C9600040D1600040D9600040E1604A
:1052900080630900806BF10000204020806048009E
:1052A000806050000060A0007374617465007574C4
:1052B0002061007377006164647600696F006D613E
:1052C0006C31006D616C67006B7069006D616C63BF
:1052D0000030313233343536373839414243444572
:1052E00046746376303100646973706F7365207340
:1052F000657300646973706F7365207068790074FA
:105300006376303200746376303300746376303401
:1053100000746376303500746376303600746376DB
:105320003130007463763131007463763136007445
:1053300063763137007463763138007463763233C4
:1053400000746376323200746376323600746376AA
:105350003237007463763238007463763239007401
:10536000637633300074637633310074637633329E
:1053700000746376333300746376333400999A9BF8
:105380009C00000D000E63633133206F7000727457
:10539000310048555020256C7820256C78006861D4
:1053A0006E67206963300048555020256C782025B1
:1053B0006C7820256C78007274320042414420528F
:1053C00058006363313320707900636331330063C5
:1053D000633133206D62004343313335303A202549
:1053E000642C2025642C20256400C004C312C51839
:1053F0004418C924CE32D8582BBC0000A361000049
:105400007F1407134D00F1242E1F133FB00A3F00F5
:1054100007FF0000304000400140034007400F40BC
:105420004F40CF40CF41CF43CF47CF4FCF3FCF2F7C
:10543000CF1FCF0F000000000F00080000003F004A
:10544000000040003F000000040068000E00DC0087
:10545000060043001A0005000000000002000000E2
:105460003F00000000000400C00000000400C00075
:105470000000070050C00091007070C000910070E3
:1054800082312100319110B10070018101B100A180
:105490008231329110B101911110418141224F406E
:1054A000F106007051C0019130181039833108D0D5
:1054B0001831416F3100319110B1831414165B68BB
:1054C0000070251050C00091F4C3C0C02014036FB9
:1054D0003110410422C082312100319110B1633971
:1054E0003110410482C082312100319110B1633901
:1054F0003110A2C082312100319110B1501015310C
:105500000514059200703F6452C0311031066131BC
:10551000C102426412C13110213971065131E102D8
:10552000426400708A65996588C02082503980394C
:10553000001E9F4041C001301814181A89C03082E3
:1055400060398039001EA94041C001301914191A70
:105550003C64369110B1349110B154B0007154A034
:1055600064B0F0800022AF404012B09032B053825D
:105570005339533985643F6411C122C1426470C1FB
:10558000C26811C1C2C0426470C1C76850C00091F6
:10559000277298921516141642105310F0C12182EA
:1055A000313131398139313151B070B27265277280
:1055B000999270B262107310F0C331822131213997
:1055C00081391B107265E2C082316082803180397E
:1055D000020061B00071329110B151A061B0277228
:1055E00030C2F36800008012B09032B0007050C03A
:1055F00000912772999262107310F0C331822131A9
:105600002139813951B070B27E652772989270B29B
:1056100042105310F0C12182313131398139313199
:105620001A107E6551A061B02772B0C018693F643E
:1056300001C122C1426401C1C2C04264151A3C6466
:10564000359110B153828564C012B09032B00070B1
:105650003F6472C281C0426422C111C1426402C06F
:1056600011C1426462C031C3426462C311C1426469
:1056700002C311C14264538253398564E2C3476453
:105680001122404142C281C8426452C211C14264E7
:1056900072C2E1CE426402C281C8426402C201C841
:1056A0004264B0C0546900703F6442C201C84264A1
:1056B00052C211C0426472C2E1C0426402C001C160
:1056C000426462C001C3426422C101C1426462C338
:1056D00001C1426402C301C1426453828564007007
:1056E00061B000711214231C7A4D339110B1007017
:1056F000329110B17269007061B000711318321CE0
:105700008649329110B10070339110B17E690070FA
:10571000C2C047641510C2C0121647644131151447
:10572000C0C0803105145410A07804040070E6C095
:10573000863101CC161467106182F0C3010417147E
:105740000070067305720B720E7250B0007181808A
:1057500060B050A092804122C3458080F1C1100406
:10576000301601110114016CD661D761D861D9617D
:10577000DA61DB61DC61DE61E061E261E4613663D4
:1057800039639180F2C0210421318280422A1214AF
:10579000321601112114016CEE610B62F461396360
:1057A000EE610B62F4613963E661E661E661E66130
:1057B000E661E6619464E661F964E6612A65E661A2
:1057C0005665E6614667E6611012B0900E72067388
:1057D000057210123090A761F0CF3C67D4C103C0AE
:1057E000C0C35464407850915078109260782092F1
:1057F0007078309280784092907860923078909172
:1058000010824039F00601101031101400924267E6
:10581000E661BCA0E2A054A0F08050221546408072
:1058200000222B470D6240A02D828D318D391082D0
:10583000F1C0100409101A824A391A041082803902
:1058400010040E10AB10BC10C21063642972E0CFBC
:105850003C6713B003B0C86653B050B054B064B0E6
:1058600013B0A5661082E0223846AE660071418012
:1058700001222B47F08010224B46F022184764B0DB
:105880003122384263B0CE661082E022384670661C
:10589000386264B06F818F318F3DD0DFFF923C67FB
:1058A0000071418001222B4764B0F0805022654294
:1058B00063B01182C1226046CE6605671182D12293
:1058C000524670665262618172818131813D8231BE
:1058D000823DC0EFF19202933C670B62B081C091B0
:1058E000D381978290A2D3187F4EF30B1316E31C3B
:1058F000A44AC391E3813B149062BA1C8B46231ED9
:105900008B4AE31C8B4E90B207228B4290A21B1A4B
:105910009662E31CA44AC391E3813B18AB1CA04EE2
:105920009B1CA24ABC1CA442B2101082D0229D42F1
:10593000F0801022A4466364A566A462AB10946252
:105940009B10946200703082F1C0100463B000714B
:10595000A86ABC10E0B00070B281C291D28101820D
:1059600012185181121841828131813D121CBF4AA7
:10597000E2B032B0B0DFF2923C67F1C72114C34EFF
:1059800012C86291729131B0E1B0007008C006C0D7
:1059900000C86091709100700182B081C091D08187
:1059A0001018518110180614E18042828231823D24
:1059B000201CE44AE2B02122E84632B00510A0DF04
:1059C000F5923C672122E842E2A032B031824139AF
:1059D000F0C00104011EF642181610C01030081C59
:1059E00004476010103C0610F1C76114FA4E16C847
:1059F000669171818131813D161C014B769131B0E8
:105A000006C008C0007061818131813D40828039CB
:105A10000118F11C174B0114B080C0221747BCB00D
:105A200033B090EFF1920F933C67007003A063B026
:105A300064B0EFB056650071408000222B4764B01F
:105A40002A65EFA00071408000222B4764B003B0AC
:105A50003862018262818231823D80EFF19202934D
:105A60003C6703A05665E661A2806364E66150B0BE
:105A70000071E661E092D08200223D47C0B2007022
:105A8000A080F022594330B002C1623101C0A08031
:105A9000001E5243F0225343A0F560316039536336
:105AA0002010101A136F236E11161216546B00700B
:105AB000AD040021490400217D040021810400215E
:105AC000110500219105002141060021F8B510477C
:105AD000F8B50E4600210125AD0430470A48037889
